{
  "contractName": "Blood",
  "abi": [
    {
      "anonymous": false,
      "inputs": [
        {
          "indexed": false,
          "internalType": "string",
          "name": "message",
          "type": "string"
        },
        {
          "indexed": false,
          "internalType": "string",
          "name": "_id",
          "type": "string"
        }
      ],
      "name": "User",
      "type": "event"
    },
    {
      "inputs": [
        {
          "internalType": "enum Blood.USERTYPE",
          "name": "_userType",
          "type": "uint8"
        },
        {
          "internalType": "string",
          "name": "_id",
          "type": "string"
        },
        {
          "internalType": "string",
          "name": "_name",
          "type": "string"
        },
        {
          "internalType": "string",
          "name": "_email",
          "type": "string"
        },
        {
          "internalType": "string",
          "name": "contact",
          "type": "string"
        },
        {
          "internalType": "string",
          "name": "_bloodGroup",
          "type": "string"
        }
      ],
      "name": "setUser",
      "outputs": [],
      "stateMutability": "nonpayable",
      "type": "function"
    },
    {
      "inputs": [
        {
          "internalType": "string",
          "name": "id",
          "type": "string"
        },
        {
          "internalType": "string",
          "name": "name",
          "type": "string"
        },
        {
          "internalType": "string",
          "name": "number",
          "type": "string"
        },
        {
          "internalType": "string",
          "name": "reason",
          "type": "string"
        },
        {
          "internalType": "string",
          "name": "bloodGroup",
          "type": "string"
        },
        {
          "internalType": "string",
          "name": "hospitalName",
          "type": "string"
        }
      ],
      "name": "setRequest",
      "outputs": [],
      "stateMutability": "nonpayable",
      "type": "function"
    },
    {
      "inputs": [
        {
          "internalType": "string",
          "name": "receiverId",
          "type": "string"
        }
      ],
      "name": "getReceiver",
      "outputs": [
        {
          "components": [
            {
              "internalType": "string",
              "name": "id",
              "type": "string"
            },
            {
              "internalType": "string",
              "name": "name",
              "type": "string"
            },
            {
              "internalType": "string",
              "name": "email",
              "type": "string"
            },
            {
              "internalType": "string",
              "name": "contactNum",
              "type": "string"
            },
            {
              "internalType": "string",
              "name": "bloodGroup",
              "type": "string"
            }
          ],
          "internalType": "struct UserStruct",
          "name": "",
          "type": "tuple"
        }
      ],
      "stateMutability": "view",
      "type": "function",
      "constant": true
    },
    {
      "inputs": [
        {
          "internalType": "string",
          "name": "donorId",
          "type": "string"
        }
      ],
      "name": "getDonor",
      "outputs": [
        {
          "components": [
            {
              "internalType": "string",
              "name": "id",
              "type": "string"
            },
            {
              "internalType": "string",
              "name": "name",
              "type": "string"
            },
            {
              "internalType": "string",
              "name": "email",
              "type": "string"
            },
            {
              "internalType": "string",
              "name": "contactNum",
              "type": "string"
            },
            {
              "internalType": "string",
              "name": "bloodGroup",
              "type": "string"
            }
          ],
          "internalType": "struct UserStruct",
          "name": "",
          "type": "tuple"
        }
      ],
      "stateMutability": "view",
      "type": "function",
      "constant": true
    },
    {
      "inputs": [
        {
          "internalType": "string",
          "name": "donorId",
          "type": "string"
        }
      ],
      "name": "setAvaibility",
      "outputs": [],
      "stateMutability": "nonpayable",
      "type": "function"
    },
    {
      "inputs": [
        {
          "internalType": "string",
          "name": "donorId",
          "type": "string"
        }
      ],
      "name": "removeAvailbility",
      "outputs": [],
      "stateMutability": "nonpayable",
      "type": "function"
    },
    {
      "inputs": [
        {
          "internalType": "string",
          "name": "id",
          "type": "string"
        }
      ],
      "name": "getUserRequests",
      "outputs": [
        {
          "components": [
            {
              "internalType": "string",
              "name": "receiverId",
              "type": "string"
            },
            {
              "internalType": "string",
              "name": "receiverName",
              "type": "string"
            },
            {
              "internalType": "string",
              "name": "patientName",
              "type": "string"
            },
            {
              "internalType": "string",
              "name": "contactNum",
              "type": "string"
            },
            {
              "internalType": "string",
              "name": "reason",
              "type": "string"
            },
            {
              "internalType": "string",
              "name": "bloodGroup",
              "type": "string"
            },
            {
              "internalType": "string",
              "name": "hospitalAddress",
              "type": "string"
            }
          ],
          "internalType": "struct Request[]",
          "name": "",
          "type": "tuple[]"
        }
      ],
      "stateMutability": "view",
      "type": "function",
      "constant": true
    },
    {
      "inputs": [],
      "name": "getAllRequest",
      "outputs": [
        {
          "components": [
            {
              "internalType": "string",
              "name": "receiverId",
              "type": "string"
            },
            {
              "internalType": "string",
              "name": "receiverName",
              "type": "string"
            },
            {
              "internalType": "string",
              "name": "patientName",
              "type": "string"
            },
            {
              "internalType": "string",
              "name": "contactNum",
              "type": "string"
            },
            {
              "internalType": "string",
              "name": "reason",
              "type": "string"
            },
            {
              "internalType": "string",
              "name": "bloodGroup",
              "type": "string"
            },
            {
              "internalType": "string",
              "name": "hospitalAddress",
              "type": "string"
            }
          ],
          "internalType": "struct Request[]",
          "name": "",
          "type": "tuple[]"
        }
      ],
      "stateMutability": "view",
      "type": "function",
      "constant": true
    },
    {
      "inputs": [],
      "name": "getAllDonors",
      "outputs": [
        {
          "components": [
            {
              "internalType": "string",
              "name": "id",
              "type": "string"
            },
            {
              "internalType": "string",
              "name": "name",
              "type": "string"
            },
            {
              "internalType": "string",
              "name": "email",
              "type": "string"
            },
            {
              "internalType": "string",
              "name": "contactNum",
              "type": "string"
            },
            {
              "internalType": "string",
              "name": "bloodGroup",
              "type": "string"
            }
          ],
          "internalType": "struct UserStruct[]",
          "name": "",
          "type": "tuple[]"
        }
      ],
      "stateMutability": "view",
      "type": "function",
      "constant": true
    },
    {
      "inputs": [],
      "name": "getAvailableDonors",
      "outputs": [
        {
          "components": [
            {
              "internalType": "string",
              "name": "id",
              "type": "string"
            },
            {
              "internalType": "string",
              "name": "name",
              "type": "string"
            },
            {
              "internalType": "string",
              "name": "email",
              "type": "string"
            },
            {
              "internalType": "string",
              "name": "contactNum",
              "type": "string"
            },
            {
              "internalType": "string",
              "name": "bloodGroup",
              "type": "string"
            }
          ],
          "internalType": "struct UserStruct[]",
          "name": "",
          "type": "tuple[]"
        }
      ],
      "stateMutability": "view",
      "type": "function",
      "constant": true
    }
  ],
  "bytecode": "0x608060405234801561001057600080fd5b5061329f806100206000396000f3fe608060405234801561001057600080fd5b506004361061009e5760003560e01c80635a89960d116100665780635a89960d1461016f578063807b217e1461018b57806389cb43f6146101a75780638c6e4d64146101c357806398e36b04146101df5761009e565b806318d3b3d2146100a357806331dad732146100c1578063323e846b146100f157806345c8299114610121578063545569ba14610151575b600080fd5b6100ab6101fd565b6040516100b891906124d5565b60405180910390f35b6100db60048036038101906100d69190612640565b610536565b6040516100e8919061271b565b60405180910390f35b61010b60048036038101906101069190612640565b610870565b604051610118919061271b565b60405180910390f35b61013b60048036038101906101369190612640565b610baa565b60405161014891906128c5565b60405180910390f35b610159611025565b60405161016691906128c5565b60405180910390f35b610189600480360381019061018491906128e7565b611482565b005b6101a560048036038101906101a09190612640565b611680565b005b6101c160048036038101906101bc9190612a41565b61184e565b005b6101dd60048036038101906101d89190612640565b611b35565b005b6101e7611f2c565b6040516101f491906124d5565b60405180910390f35b60606004805480602002602001604051908101604052809291908181526020016000905b8282101561052d57838290600052602060002090600502016040518060a001604052908160008201805461025490612b89565b80601f016020809104026020016040519081016040528092919081815260200182805461028090612b89565b80156102cd5780601f106102a2576101008083540402835291602001916102cd565b820191906000526020600020905b8154815290600101906020018083116102b057829003601f168201915b505050505081526020016001820180546102e690612b89565b80601f016020809104026020016040519081016040528092919081815260200182805461031290612b89565b801561035f5780601f106103345761010080835404028352916020019161035f565b820191906000526020600020905b81548152906001019060200180831161034257829003601f168201915b5050505050815260200160028201805461037890612b89565b80601f01602080910402602001604051908101604052809291908181526020018280546103a490612b89565b80156103f15780601f106103c6576101008083540402835291602001916103f1565b820191906000526020600020905b8154815290600101906020018083116103d457829003601f168201915b5050505050815260200160038201805461040a90612b89565b80601f016020809104026020016040519081016040528092919081815260200182805461043690612b89565b80156104835780601f1061045857610100808354040283529160200191610483565b820191906000526020600020905b81548152906001019060200180831161046657829003601f168201915b5050505050815260200160048201805461049c90612b89565b80601f01602080910402602001604051908101604052809291908181526020018280546104c890612b89565b80156105155780601f106104ea57610100808354040283529160200191610515565b820191906000526020600020905b8154815290600101906020018083116104f857829003601f168201915b50505050508152505081526020019060010190610221565b50505050905090565b61053e612265565b60006006836040516105509190612bf6565b90815260200160405180910390205490506001818154811061057557610574612c0d565b5b90600052602060002090600502016040518060a001604052908160008201805461059e90612b89565b80601f01602080910402602001604051908101604052809291908181526020018280546105ca90612b89565b80156106175780601f106105ec57610100808354040283529160200191610617565b820191906000526020600020905b8154815290600101906020018083116105fa57829003601f168201915b5050505050815260200160018201805461063090612b89565b80601f016020809104026020016040519081016040528092919081815260200182805461065c90612b89565b80156106a95780601f1061067e576101008083540402835291602001916106a9565b820191906000526020600020905b81548152906001019060200180831161068c57829003601f168201915b505050505081526020016002820180546106c290612b89565b80601f01602080910402602001604051908101604052809291908181526020018280546106ee90612b89565b801561073b5780601f106107105761010080835404028352916020019161073b565b820191906000526020600020905b81548152906001019060200180831161071e57829003601f168201915b5050505050815260200160038201805461075490612b89565b80601f016020809104026020016040519081016040528092919081815260200182805461078090612b89565b80156107cd5780601f106107a2576101008083540402835291602001916107cd565b820191906000526020600020905b8154815290600101906020018083116107b057829003601f168201915b505050505081526020016004820180546107e690612b89565b80601f016020809104026020016040519081016040528092919081815260200182805461081290612b89565b801561085f5780601f106108345761010080835404028352916020019161085f565b820191906000526020600020905b81548152906001019060200180831161084257829003601f168201915b505050505081525050915050919050565b610878612265565b600060058360405161088a9190612bf6565b9081526020016040518091039020549050600081815481106108af576108ae612c0d565b5b90600052602060002090600502016040518060a00160405290816000820180546108d890612b89565b80601f016020809104026020016040519081016040528092919081815260200182805461090490612b89565b80156109515780601f1061092657610100808354040283529160200191610951565b820191906000526020600020905b81548152906001019060200180831161093457829003601f168201915b5050505050815260200160018201805461096a90612b89565b80601f016020809104026020016040519081016040528092919081815260200182805461099690612b89565b80156109e35780601f106109b8576101008083540402835291602001916109e3565b820191906000526020600020905b8154815290600101906020018083116109c657829003601f168201915b505050505081526020016002820180546109fc90612b89565b80601f0160208091040260200160405190810160405280929190818152602001828054610a2890612b89565b8015610a755780601f10610a4a57610100808354040283529160200191610a75565b820191906000526020600020905b815481529060010190602001808311610a5857829003601f168201915b50505050508152602001600382018054610a8e90612b89565b80601f0160208091040260200160405190810160405280929190818152602001828054610aba90612b89565b8015610b075780601f10610adc57610100808354040283529160200191610b07565b820191906000526020600020905b815481529060010190602001808311610aea57829003601f168201915b50505050508152602001600482018054610b2090612b89565b80601f0160208091040260200160405190810160405280929190818152602001828054610b4c90612b89565b8015610b995780601f10610b6e57610100808354040283529160200191610b99565b820191906000526020600020905b815481529060010190602001808311610b7c57829003601f168201915b505050505081525050915050919050565b6060600782604051610bbc9190612bf6565b9081526020016040518091039020805480602002602001604051908101604052809291908181526020016000905b8282101561101a57838290600052602060002090600702016040518060e0016040529081600082018054610c1d90612b89565b80601f0160208091040260200160405190810160405280929190818152602001828054610c4990612b89565b8015610c965780601f10610c6b57610100808354040283529160200191610c96565b820191906000526020600020905b815481529060010190602001808311610c7957829003601f168201915b50505050508152602001600182018054610caf90612b89565b80601f0160208091040260200160405190810160405280929190818152602001828054610cdb90612b89565b8015610d285780601f10610cfd57610100808354040283529160200191610d28565b820191906000526020600020905b815481529060010190602001808311610d0b57829003601f168201915b50505050508152602001600282018054610d4190612b89565b80601f0160208091040260200160405190810160405280929190818152602001828054610d6d90612b89565b8015610dba5780601f10610d8f57610100808354040283529160200191610dba565b820191906000526020600020905b815481529060010190602001808311610d9d57829003601f168201915b50505050508152602001600382018054610dd390612b89565b80601f0160208091040260200160405190810160405280929190818152602001828054610dff90612b89565b8015610e4c5780601f10610e2157610100808354040283529160200191610e4c565b820191906000526020600020905b815481529060010190602001808311610e2f57829003601f168201915b50505050508152602001600482018054610e6590612b89565b80601f0160208091040260200160405190810160405280929190818152602001828054610e9190612b89565b8015610ede5780601f10610eb357610100808354040283529160200191610ede565b820191906000526020600020905b815481529060010190602001808311610ec157829003601f168201915b50505050508152602001600582018054610ef790612b89565b80601f0160208091040260200160405190810160405280929190818152602001828054610f2390612b89565b8015610f705780601f10610f4557610100808354040283529160200191610f70565b820191906000526020600020905b815481529060010190602001808311610f5357829003601f168201915b50505050508152602001600682018054610f8990612b89565b80601f0160208091040260200160405190810160405280929190818152602001828054610fb590612b89565b80156110025780601f10610fd757610100808354040283529160200191611002565b820191906000526020600020905b815481529060010190602001808311610fe557829003601f168201915b50505050508152505081526020019060010190610bea565b505050509050919050565b60606002805480602002602001604051908101604052809291908181526020016000905b8282101561147957838290600052602060002090600702016040518060e001604052908160008201805461107c90612b89565b80601f01602080910402602001604051908101604052809291908181526020018280546110a890612b89565b80156110f55780601f106110ca576101008083540402835291602001916110f5565b820191906000526020600020905b8154815290600101906020018083116110d857829003601f168201915b5050505050815260200160018201805461110e90612b89565b80601f016020809104026020016040519081016040528092919081815260200182805461113a90612b89565b80156111875780601f1061115c57610100808354040283529160200191611187565b820191906000526020600020905b81548152906001019060200180831161116a57829003601f168201915b505050505081526020016002820180546111a090612b89565b80601f01602080910402602001604051908101604052809291908181526020018280546111cc90612b89565b80156112195780601f106111ee57610100808354040283529160200191611219565b820191906000526020600020905b8154815290600101906020018083116111fc57829003601f168201915b5050505050815260200160038201805461123290612b89565b80601f016020809104026020016040519081016040528092919081815260200182805461125e90612b89565b80156112ab5780601f10611280576101008083540402835291602001916112ab565b820191906000526020600020905b81548152906001019060200180831161128e57829003601f168201915b505050505081526020016004820180546112c490612b89565b80601f01602080910402602001604051908101604052809291908181526020018280546112f090612b89565b801561133d5780601f106113125761010080835404028352916020019161133d565b820191906000526020600020905b81548152906001019060200180831161132057829003601f168201915b5050505050815260200160058201805461135690612b89565b80601f016020809104026020016040519081016040528092919081815260200182805461138290612b89565b80156113cf5780601f106113a4576101008083540402835291602001916113cf565b820191906000526020600020905b8154815290600101906020018083116113b257829003601f168201915b505050505081526020016006820180546113e890612b89565b80601f016020809104026020016040519081016040528092919081815260200182805461141490612b89565b80156114615780601f1061143657610100808354040283529160200191611461565b820191906000526020600020905b81548152906001019060200180831161144457829003601f168201915b50505050508152505081526020019060010190611049565b50505050905090565b600061148d87610870565b60200151905060006040518060e001604052808981526020018381526020018881526020018781526020018681526020018581526020018481525090506007886040516114da9190612bf6565b908152602001604051809103902081908060018154018082558091505060019003906000526020600020906007020160009091909190915060008201518160000190816115279190612df2565b50602082015181600101908161153d9190612df2565b5060408201518160020190816115539190612df2565b5060608201518160030190816115699190612df2565b50608082015181600401908161157f9190612df2565b5060a08201518160050190816115959190612df2565b5060c08201518160060190816115ab9190612df2565b505050600281908060018154018082558091505060019003906000526020600020906007020160009091909190915060008201518160000190816115ef9190612df2565b5060208201518160010190816116059190612df2565b50604082015181600201908161161b9190612df2565b5060608201518160030190816116319190612df2565b5060808201518160040190816116479190612df2565b5060a082015181600501908161165d9190612df2565b5060c08201518160060190816116739190612df2565b5050505050505050505050565b600060016004805490506116949190612ef3565b905060006008836040516116a89190612bf6565b9081526020016040518091039020549050600482815481106116cd576116cc612c0d565b5b9060005260206000209060050201600482815481106116ef576116ee612c0d565b5b9060005260206000209060050201600082018160000190816117119190612f3d565b50600182018160010190816117269190612f3d565b506002820181600201908161173b9190612f3d565b50600382018160030190816117509190612f3d565b50600482018160040190816117659190612f3d565b509050506008836040516117799190612bf6565b90815260200160405180910390205460086004848154811061179e5761179d612c0d565b5b90600052602060002090600502016000016040516117bc91906130a8565b90815260200160405180910390208190555060048054806117e0576117df6130bf565b5b6001900381819060005260206000209060050201600080820160006118059190612294565b6001820160006118159190612294565b6002820160006118259190612294565b6003820160006118359190612294565b6004820160006118459190612294565b50509055505050565b60006001811115611862576118616130ee565b5b866001811115611875576118746130ee565b5b03611a005760006001805490509050600180816001815401808255809150500390600052602060002090505085600182815481106118b6576118b5612c0d565b5b906000526020600020906005020160000190816118d39190612df2565b5084600182815481106118e9576118e8612c0d565b5b906000526020600020906005020160010190816119069190612df2565b50836001828154811061191c5761191b612c0d565b5b906000526020600020906005020160020190816119399190612df2565b50826001828154811061194f5761194e612c0d565b5b9060005260206000209060050201600301908161196c9190612df2565b50816001828154811061198257611981612c0d565b5b9060005260206000209060050201600401908161199f9190612df2565b50806006876040516119b19190612bf6565b9081526020016040518091039020819055507f9225e751b3dd0443fcd06610d0305b29f3a131c7c4c5b95969d96213d0c6d149866040516119f291906131b3565b60405180910390a150611b2d565b60008080549050905060006040518060a0016040528088815260200187815260200186815260200185815260200184815250905081600588604051611a459190612bf6565b90815260200160405180910390208190555060008190806001815401808255809150506001900390600052602060002090600502016000909190919091506000820151816000019081611a989190612df2565b506020820151816001019081611aae9190612df2565b506040820151816002019081611ac49190612df2565b506060820151816003019081611ada9190612df2565b506080820151816004019081611af09190612df2565b5050507f9225e751b3dd0443fcd06610d0305b29f3a131c7c4c5b95969d96213d0c6d14987604051611b229190613234565b60405180910390a150505b505050505050565b6000600480549050905060006001600684604051611b539190612bf6565b90815260200160405180910390205481548110611b7357611b72612c0d565b5b90600052602060002090600502016040518060a0016040529081600082018054611b9c90612b89565b80601f0160208091040260200160405190810160405280929190818152602001828054611bc890612b89565b8015611c155780601f10611bea57610100808354040283529160200191611c15565b820191906000526020600020905b815481529060010190602001808311611bf857829003601f168201915b50505050508152602001600182018054611c2e90612b89565b80601f0160208091040260200160405190810160405280929190818152602001828054611c5a90612b89565b8015611ca75780601f10611c7c57610100808354040283529160200191611ca7565b820191906000526020600020905b815481529060010190602001808311611c8a57829003601f168201915b50505050508152602001600282018054611cc090612b89565b80601f0160208091040260200160405190810160405280929190818152602001828054611cec90612b89565b8015611d395780601f10611d0e57610100808354040283529160200191611d39565b820191906000526020600020905b815481529060010190602001808311611d1c57829003601f168201915b50505050508152602001600382018054611d5290612b89565b80601f0160208091040260200160405190810160405280929190818152602001828054611d7e90612b89565b8015611dcb5780601f10611da057610100808354040283529160200191611dcb565b820191906000526020600020905b815481529060010190602001808311611dae57829003601f168201915b50505050508152602001600482018054611de490612b89565b80601f0160208091040260200160405190810160405280929190818152602001828054611e1090612b89565b8015611e5d5780601f10611e3257610100808354040283529160200191611e5d565b820191906000526020600020905b815481529060010190602001808311611e4057829003601f168201915b505050505081525050905060048190806001815401808255809150506001900390600052602060002090600502016000909190919091506000820151816000019081611ea99190612df2565b506020820151816001019081611ebf9190612df2565b506040820151816002019081611ed59190612df2565b506060820151816003019081611eeb9190612df2565b506080820151816004019081611f019190612df2565b50505081600884604051611f159190612bf6565b908152602001604051809103902081905550505050565b60606001805480602002602001604051908101604052809291908181526020016000905b8282101561225c57838290600052602060002090600502016040518060a0016040529081600082018054611f8390612b89565b80601f0160208091040260200160405190810160405280929190818152602001828054611faf90612b89565b8015611ffc5780601f10611fd157610100808354040283529160200191611ffc565b820191906000526020600020905b815481529060010190602001808311611fdf57829003601f168201915b5050505050815260200160018201805461201590612b89565b80601f016020809104026020016040519081016040528092919081815260200182805461204190612b89565b801561208e5780601f106120635761010080835404028352916020019161208e565b820191906000526020600020905b81548152906001019060200180831161207157829003601f168201915b505050505081526020016002820180546120a790612b89565b80601f01602080910402602001604051908101604052809291908181526020018280546120d390612b89565b80156121205780601f106120f557610100808354040283529160200191612120565b820191906000526020600020905b81548152906001019060200180831161210357829003601f168201915b5050505050815260200160038201805461213990612b89565b80601f016020809104026020016040519081016040528092919081815260200182805461216590612b89565b80156121b25780601f10612187576101008083540402835291602001916121b2565b820191906000526020600020905b81548152906001019060200180831161219557829003601f168201915b505050505081526020016004820180546121cb90612b89565b80601f01602080910402602001604051908101604052809291908181526020018280546121f790612b89565b80156122445780601f1061221957610100808354040283529160200191612244565b820191906000526020600020905b81548152906001019060200180831161222757829003601f168201915b50505050508152505081526020019060010190611f50565b50505050905090565b6040518060a0016040528060608152602001606081526020016060815260200160608152602001606081525090565b5080546122a090612b89565b6000825580601f106122b257506122d1565b601f0160209004906000526020600020908101906122d091906122d4565b5b50565b5b808211156122ed5760008160009055506001016122d5565b5090565b600081519050919050565b600082825260208201905092915050565b6000819050602082019050919050565b600081519050919050565b600082825260208201905092915050565b60005b8381101561235757808201518184015260208101905061233c565b60008484015250505050565b6000601f19601f8301169050919050565b600061237f8261231d565b6123898185612328565b9350612399818560208601612339565b6123a281612363565b840191505092915050565b600060a08301600083015184820360008601526123ca8282612374565b915050602083015184820360208601526123e48282612374565b915050604083015184820360408601526123fe8282612374565b915050606083015184820360608601526124188282612374565b915050608083015184820360808601526124328282612374565b9150508091505092915050565b600061244b83836123ad565b905092915050565b6000602082019050919050565b600061246b826122f1565b61247581856122fc565b9350836020820285016124878561230d565b8060005b858110156124c357848403895281516124a4858261243f565b94506124af83612453565b925060208a0199505060018101905061248b565b50829750879550505050505092915050565b600060208201905081810360008301526124ef8184612460565b905092915050565b6000604051905090565b600080fd5b600080fd5b600080fd5b600080fd5b7f4e487b7100000000000000000000000000000000000000000000000000000000600052604160045260246000fd5b61254d82612363565b810181811067ffffffffffffffff8211171561256c5761256b612515565b5b80604052505050565b600061257f6124f7565b905061258b8282612544565b919050565b600067ffffffffffffffff8211156125ab576125aa612515565b5b6125b482612363565b9050602081019050919050565b82818337600083830152505050565b60006125e36125de84612590565b612575565b9050828152602081018484840111156125ff576125fe612510565b5b61260a8482856125c1565b509392505050565b600082601f8301126126275761262661250b565b5b81356126378482602086016125d0565b91505092915050565b60006020828403121561265657612655612501565b5b600082013567ffffffffffffffff81111561267457612673612506565b5b61268084828501612612565b91505092915050565b600060a08301600083015184820360008601526126a68282612374565b915050602083015184820360208601526126c08282612374565b915050604083015184820360408601526126da8282612374565b915050606083015184820360608601526126f48282612374565b9150506080830151848203608086015261270e8282612374565b9150508091505092915050565b600060208201905081810360008301526127358184612689565b905092915050565b600081519050919050565b600082825260208201905092915050565b6000819050602082019050919050565b600060e08301600083015184820360008601526127868282612374565b915050602083015184820360208601526127a08282612374565b915050604083015184820360408601526127ba8282612374565b915050606083015184820360608601526127d48282612374565b915050608083015184820360808601526127ee8282612374565b91505060a083015184820360a08601526128088282612374565b91505060c083015184820360c08601526128228282612374565b9150508091505092915050565b600061283b8383612769565b905092915050565b6000602082019050919050565b600061285b8261273d565b6128658185612748565b93508360208202850161287785612759565b8060005b858110156128b35784840389528151612894858261282f565b945061289f83612843565b925060208a0199505060018101905061287b565b50829750879550505050505092915050565b600060208201905081810360008301526128df8184612850565b905092915050565b60008060008060008060c0878903121561290457612903612501565b5b600087013567ffffffffffffffff81111561292257612921612506565b5b61292e89828a01612612565b965050602087013567ffffffffffffffff81111561294f5761294e612506565b5b61295b89828a01612612565b955050604087013567ffffffffffffffff81111561297c5761297b612506565b5b61298889828a01612612565b945050606087013567ffffffffffffffff8111156129a9576129a8612506565b5b6129b589828a01612612565b935050608087013567ffffffffffffffff8111156129d6576129d5612506565b5b6129e289828a01612612565b92505060a087013567ffffffffffffffff811115612a0357612a02612506565b5b612a0f89828a01612612565b9150509295509295509295565b60028110612a2957600080fd5b50565b600081359050612a3b81612a1c565b92915050565b60008060008060008060c08789031215612a5e57612a5d612501565b5b6000612a6c89828a01612a2c565b965050602087013567ffffffffffffffff811115612a8d57612a8c612506565b5b612a9989828a01612612565b955050604087013567ffffffffffffffff811115612aba57612ab9612506565b5b612ac689828a01612612565b945050606087013567ffffffffffffffff811115612ae757612ae6612506565b5b612af389828a01612612565b935050608087013567ffffffffffffffff811115612b1457612b13612506565b5b612b2089828a01612612565b92505060a087013567ffffffffffffffff811115612b4157612b40612506565b5b612b4d89828a01612612565b9150509295509295509295565b7f4e487b7100000000000000000000000000000000000000000000000000000000600052602260045260246000fd5b60006002820490506001821680612ba157607f821691505b602082108103612bb457612bb3612b5a565b5b50919050565b600081905092915050565b6000612bd08261231d565b612bda8185612bba565b9350612bea818560208601612339565b80840191505092915050565b6000612c028284612bc5565b915081905092915050565b7f4e487b7100000000000000000000000000000000000000000000000000000000600052603260045260246000fd5b60008190508160005260206000209050919050565b60006020601f8301049050919050565b600082821b905092915050565b600060088302612c9e7fffffffffffffffffffffffffffffffffffffffffffffffffffffffffffffffff82612c61565b612ca88683612c61565b95508019841693508086168417925050509392505050565b6000819050919050565b6000819050919050565b6000612cef612cea612ce584612cc0565b612cca565b612cc0565b9050919050565b6000819050919050565b612d0983612cd4565b612d1d612d1582612cf6565b848454612c6e565b825550505050565b600090565b612d32612d25565b612d3d818484612d00565b505050565b5b81811015612d6157612d56600082612d2a565b600181019050612d43565b5050565b601f821115612da657612d7781612c3c565b612d8084612c51565b81016020851015612d8f578190505b612da3612d9b85612c51565b830182612d42565b50505b505050565b600082821c905092915050565b6000612dc960001984600802612dab565b1980831691505092915050565b6000612de28383612db8565b9150826002028217905092915050565b612dfb8261231d565b67ffffffffffffffff811115612e1457612e13612515565b5b612e1e8254612b89565b612e29828285612d65565b600060209050601f831160018114612e5c5760008415612e4a578287015190505b612e548582612dd6565b865550612ebc565b601f198416612e6a86612c3c565b60005b82811015612e9257848901518255600182019150602085019450602081019050612e6d565b86831015612eaf5784890151612eab601f891682612db8565b8355505b6001600288020188555050505b505050505050565b7f4e487b7100000000000000000000000000000000000000000000000000000000600052601160045260246000fd5b6000612efe82612cc0565b9150612f0983612cc0565b9250828203905081811115612f2157612f20612ec4565b5b92915050565b600081549050612f3681612b89565b9050919050565b818103612f4b575050613023565b612f5482612f27565b67ffffffffffffffff811115612f6d57612f6c612515565b5b612f778254612b89565b612f82828285612d65565b6000601f831160018114612fb15760008415612f9f578287015490505b612fa98582612dd6565b86555061301c565b601f198416612fbf87612c3c565b9650612fca86612c3c565b60005b82811015612ff257848901548255600182019150600185019450602081019050612fcd565b8683101561300f578489015461300b601f891682612db8565b8355505b6001600288020188555050505b5050505050505b565b6000815461303281612b89565b61303c8186612bba565b94506001821660008114613057576001811461306c5761309f565b60ff198316865281151582028601935061309f565b61307585612c3c565b60005b8381101561309757815481890152600182019150602081019050613078565b838801955050505b50505092915050565b60006130b48284613025565b915081905092915050565b7f4e487b7100000000000000000000000000000000000000000000000000000000600052603160045260246000fd5b7f4e487b7100000000000000000000000000000000000000000000000000000000600052602160045260246000fd5b600082825260208201905092915050565b7f446f6e6f722043726561746564205375636365737366756c6c79000000000000600082015250565b6000613164601a8361311d565b915061316f8261312e565b602082019050919050565b60006131858261231d565b61318f818561311d565b935061319f818560208601612339565b6131a881612363565b840191505092915050565b600060408201905081810360008301526131cc81613157565b905081810360208301526131e0818461317a565b905092915050565b7f52656365697665722043726561746564205375636365737366756c6c79000000600082015250565b600061321e601d8361311d565b9150613229826131e8565b602082019050919050565b6000604082019050818103600083015261324d81613211565b90508181036020830152613261818461317a565b90509291505056fea264697066735822122039d52075eb56cd4cf4674c55a87ec69126a89e991955a32432ad360e961ee6a264736f6c63430008110033",
  "immutableReferences": {},
  "source": "// SPDX-License-Identifier: GPL-3.0\r\n\r\npragma solidity >=0.5.0 <=0.8.17;\r\n\r\n    struct UserStruct{\r\n        string id;\r\n        string name;\r\n        string email;\r\n        string contactNum;\r\n        string bloodGroup;\r\n    }\r\n\r\n    struct Request{\r\n        string receiverId;\r\n        string receiverName;\r\n        string patientName;\r\n        string contactNum;\r\n        string reason;\r\n        string bloodGroup;\r\n        string hospitalAddress;\r\n    }\r\n\r\ncontract Blood{\r\n\r\n    UserStruct [] receiver;\r\n    UserStruct [] donor;\r\n    Request [] request;\r\n    Request [] userRequests;\r\n    UserStruct [] availableDonors;\r\n\r\n    enum USERTYPE{Donor,Receiver}\r\n\r\n    mapping(string => uint) _receiverId;\r\n    mapping(string => uint) _donorId;\r\n    mapping(string => Request[]) _requestId;\r\n    mapping(string=> uint) _avaibilityId;\r\n\r\n    event User(string message,string _id);\r\n\r\n    function setUser(USERTYPE _userType,string memory _id,string memory _name,string memory _email,string memory contact,string memory _bloodGroup)public{\r\n        if(_userType == USERTYPE.Donor){\r\n            uint index = donor.length;\r\n            donor.push();\r\n            donor[index].id = _id;\r\n            donor[index].name = _name;\r\n            donor[index].email = _email;\r\n            donor[index].contactNum = contact;\r\n            donor[index].bloodGroup = _bloodGroup;\r\n\r\n            _donorId[_id] = index;\r\n\r\n            emit User(\"Donor Created Successfully\",_id);\r\n        }else{\r\n            uint index = receiver.length;\r\n            UserStruct memory _receiver = UserStruct({\r\n            id: _id,\r\n            name: _name,\r\n            email: _email,\r\n            contactNum: contact,\r\n            bloodGroup: _bloodGroup\r\n            });\r\n            _receiverId[_id] = index;\r\n            receiver.push(_receiver);\r\n\r\n            emit User(\"Receiver Created Successfully\",_id);\r\n        }\r\n    }\r\n\r\n    function setRequest(string memory id,string memory name,string memory number,string memory reason,string memory bloodGroup,string memory hospitalName)public{\r\n        string memory receiverName = getReceiver(id).name;\r\n        Request memory _request = Request({\r\n        receiverId: id,\r\n        receiverName: receiverName,\r\n        patientName: name,\r\n        contactNum: number,\r\n        reason: reason,\r\n        bloodGroup: bloodGroup,\r\n        hospitalAddress: hospitalName\r\n        });\r\n        _requestId[id].push(_request);\r\n        request.push(_request);\r\n    }\r\n\r\n    function getReceiver(string memory receiverId)public view returns(UserStruct memory){\r\n        uint _receiver = _receiverId[receiverId];\r\n        return receiver[_receiver];\r\n    }\r\n\r\n    function getDonor(string memory donorId)public view returns(UserStruct memory){\r\n        uint _donor = _donorId[donorId];\r\n        return donor[_donor];\r\n    }\r\n\r\n    function setAvaibility(string memory donorId)public{\r\n        uint index = availableDonors.length;\r\n        UserStruct memory donorData = donor[_donorId[donorId]];\r\n        availableDonors.push(donorData);\r\n        _avaibilityId[donorId] = index;\r\n    }\r\n\r\n    function removeAvailbility(string memory donorId)public{\r\n        uint lastIndex = availableDonors.length-1;\r\n        uint removeElement = _avaibilityId[donorId];\r\n        availableDonors[removeElement] = availableDonors[lastIndex];\r\n        _avaibilityId[availableDonors[lastIndex].id] = _avaibilityId[donorId];\r\n        availableDonors.pop();\r\n    }\r\n\r\n    function getUserRequests(string memory id)public view returns(Request [] memory){\r\n        return _requestId[id];\r\n    }\r\n\r\n    function getAllRequest()public view returns(Request [] memory){\r\n        return request;\r\n    }\r\n\r\n    function getAllDonors()public view returns(UserStruct [] memory){\r\n        return donor;\r\n    }\r\n\r\n    function getAvailableDonors()public view returns(UserStruct [] memory){\r\n        return availableDonors;\r\n    }\r\n\r\n\r\n}",
  "sourcePath": "C:\\Users\\Atta ur Rehman\\AndroidStudioProjects\\blood_bank\\contracts\\Blood.sol",
  "compiler": {
    "name": "solc",
    "version": "0.8.17+commit.8df45f5f.Emscripten.clang"
  },
  "schemaVersion": "3.4.10",
  "updatedAt": "2023-01-04T08:41:43.122Z",
  "networkType": "ethereum",
  "devdoc": {
    "kind": "dev",
    "methods": {},
    "version": 1
  },
  "userdoc": {
    "kind": "user",
    "methods": {},
    "version": 1
  }
}