{
  "contractName": "Blood",
  "abi": [
    {
      "anonymous": false,
      "inputs": [
        {
          "indexed": false,
          "internalType": "string",
          "name": "message",
          "type": "string"
        },
        {
          "indexed": false,
          "internalType": "string",
          "name": "_id",
          "type": "string"
        }
      ],
      "name": "User",
      "type": "event"
    },
    {
      "inputs": [
        {
          "internalType": "enum Blood.USERTYPE",
          "name": "_userType",
          "type": "uint8"
        },
        {
          "internalType": "string",
          "name": "_id",
          "type": "string"
        },
        {
          "internalType": "string",
          "name": "_name",
          "type": "string"
        },
        {
          "internalType": "string",
          "name": "_email",
          "type": "string"
        },
        {
          "internalType": "string",
          "name": "contact",
          "type": "string"
        },
        {
          "internalType": "string",
          "name": "_bloodGroup",
          "type": "string"
        }
      ],
      "name": "setUser",
      "outputs": [],
      "stateMutability": "nonpayable",
      "type": "function"
    },
    {
      "inputs": [
        {
          "internalType": "string",
          "name": "id",
          "type": "string"
        },
        {
          "internalType": "string",
          "name": "name",
          "type": "string"
        },
        {
          "internalType": "string",
          "name": "number",
          "type": "string"
        },
        {
          "internalType": "string",
          "name": "reason",
          "type": "string"
        },
        {
          "internalType": "string",
          "name": "bloodGroup",
          "type": "string"
        },
        {
          "internalType": "string",
          "name": "hospitalName",
          "type": "string"
        }
      ],
      "name": "setRequest",
      "outputs": [],
      "stateMutability": "nonpayable",
      "type": "function"
    },
    {
      "inputs": [
        {
          "internalType": "string",
          "name": "receiverId",
          "type": "string"
        }
      ],
      "name": "getReceiver",
      "outputs": [
        {
          "components": [
            {
              "internalType": "string",
              "name": "id",
              "type": "string"
            },
            {
              "internalType": "string",
              "name": "name",
              "type": "string"
            },
            {
              "internalType": "string",
              "name": "email",
              "type": "string"
            },
            {
              "internalType": "string",
              "name": "contactNum",
              "type": "string"
            },
            {
              "internalType": "string",
              "name": "bloodGroup",
              "type": "string"
            }
          ],
          "internalType": "struct UserStruct",
          "name": "",
          "type": "tuple"
        }
      ],
      "stateMutability": "view",
      "type": "function",
      "constant": true
    },
    {
      "inputs": [
        {
          "internalType": "string",
          "name": "donorId",
          "type": "string"
        }
      ],
      "name": "getDonor",
      "outputs": [
        {
          "components": [
            {
              "internalType": "string",
              "name": "id",
              "type": "string"
            },
            {
              "internalType": "string",
              "name": "name",
              "type": "string"
            },
            {
              "internalType": "string",
              "name": "email",
              "type": "string"
            },
            {
              "internalType": "string",
              "name": "contactNum",
              "type": "string"
            },
            {
              "internalType": "string",
              "name": "bloodGroup",
              "type": "string"
            }
          ],
          "internalType": "struct UserStruct",
          "name": "",
          "type": "tuple"
        }
      ],
      "stateMutability": "view",
      "type": "function",
      "constant": true
    },
    {
      "inputs": [
        {
          "internalType": "string",
          "name": "id",
          "type": "string"
        }
      ],
      "name": "getUserRequests",
      "outputs": [
        {
          "components": [
            {
              "internalType": "string",
              "name": "receiverId",
              "type": "string"
            },
            {
              "internalType": "string",
              "name": "patientName",
              "type": "string"
            },
            {
              "internalType": "string",
              "name": "contactNum",
              "type": "string"
            },
            {
              "internalType": "string",
              "name": "reason",
              "type": "string"
            },
            {
              "internalType": "string",
              "name": "bloodGroup",
              "type": "string"
            },
            {
              "internalType": "string",
              "name": "hospitalAddress",
              "type": "string"
            },
            {
              "internalType": "uint256",
              "name": "date",
              "type": "uint256"
            }
          ],
          "internalType": "struct Request[]",
          "name": "",
          "type": "tuple[]"
        }
      ],
      "stateMutability": "view",
      "type": "function",
      "constant": true
    },
    {
      "inputs": [],
      "name": "getAllRequest",
      "outputs": [
        {
          "components": [
            {
              "internalType": "string",
              "name": "receiverId",
              "type": "string"
            },
            {
              "internalType": "string",
              "name": "patientName",
              "type": "string"
            },
            {
              "internalType": "string",
              "name": "contactNum",
              "type": "string"
            },
            {
              "internalType": "string",
              "name": "reason",
              "type": "string"
            },
            {
              "internalType": "string",
              "name": "bloodGroup",
              "type": "string"
            },
            {
              "internalType": "string",
              "name": "hospitalAddress",
              "type": "string"
            },
            {
              "internalType": "uint256",
              "name": "date",
              "type": "uint256"
            }
          ],
          "internalType": "struct Request[]",
          "name": "",
          "type": "tuple[]"
        }
      ],
      "stateMutability": "view",
      "type": "function",
      "constant": true
    },
    {
      "inputs": [],
      "name": "getAllDonors",
      "outputs": [
        {
          "components": [
            {
              "internalType": "string",
              "name": "id",
              "type": "string"
            },
            {
              "internalType": "string",
              "name": "name",
              "type": "string"
            },
            {
              "internalType": "string",
              "name": "email",
              "type": "string"
            },
            {
              "internalType": "string",
              "name": "contactNum",
              "type": "string"
            },
            {
              "internalType": "string",
              "name": "bloodGroup",
              "type": "string"
            }
          ],
          "internalType": "struct UserStruct[]",
          "name": "",
          "type": "tuple[]"
        }
      ],
      "stateMutability": "view",
      "type": "function",
      "constant": true
    }
  ],
  "bytecode": "0x608060405234801561001057600080fd5b50612571806100206000396000f3fe608060405234801561001057600080fd5b506004361061007d5760003560e01c8063545569ba1161005b578063545569ba146101125780635a89960d1461013057806389cb43f61461014c57806398e36b04146101685761007d565b806331dad73214610082578063323e846b146100b257806345c82991146100e2575b600080fd5b61009c6004803603810190610097919061193f565b610186565b6040516100a99190611a99565b60405180910390f35b6100cc60048036038101906100c7919061193f565b6104c0565b6040516100d99190611a99565b60405180910390f35b6100fc60048036038101906100f7919061193f565b6107fa565b6040516101099190611c55565b60405180910390f35b61011a610bed565b6040516101279190611c55565b60405180910390f35b61014a60048036038101906101459190611c77565b610fc2565b005b61016660048036038101906101619190611dd1565b611196565b005b61017061147d565b60405161017d919061203e565b60405180910390f35b61018e6117b6565b60006005836040516101a0919061209c565b9081526020016040518091039020549050600181815481106101c5576101c46120b3565b5b90600052602060002090600502016040518060a00160405290816000820180546101ee90612111565b80601f016020809104026020016040519081016040528092919081815260200182805461021a90612111565b80156102675780601f1061023c57610100808354040283529160200191610267565b820191906000526020600020905b81548152906001019060200180831161024a57829003601f168201915b5050505050815260200160018201805461028090612111565b80601f01602080910402602001604051908101604052809291908181526020018280546102ac90612111565b80156102f95780601f106102ce576101008083540402835291602001916102f9565b820191906000526020600020905b8154815290600101906020018083116102dc57829003601f168201915b5050505050815260200160028201805461031290612111565b80601f016020809104026020016040519081016040528092919081815260200182805461033e90612111565b801561038b5780601f106103605761010080835404028352916020019161038b565b820191906000526020600020905b81548152906001019060200180831161036e57829003601f168201915b505050505081526020016003820180546103a490612111565b80601f01602080910402602001604051908101604052809291908181526020018280546103d090612111565b801561041d5780601f106103f25761010080835404028352916020019161041d565b820191906000526020600020905b81548152906001019060200180831161040057829003601f168201915b5050505050815260200160048201805461043690612111565b80601f016020809104026020016040519081016040528092919081815260200182805461046290612111565b80156104af5780601f10610484576101008083540402835291602001916104af565b820191906000526020600020905b81548152906001019060200180831161049257829003601f168201915b505050505081525050915050919050565b6104c86117b6565b60006004836040516104da919061209c565b9081526020016040518091039020549050600081815481106104ff576104fe6120b3565b5b90600052602060002090600502016040518060a001604052908160008201805461052890612111565b80601f016020809104026020016040519081016040528092919081815260200182805461055490612111565b80156105a15780601f10610576576101008083540402835291602001916105a1565b820191906000526020600020905b81548152906001019060200180831161058457829003601f168201915b505050505081526020016001820180546105ba90612111565b80601f01602080910402602001604051908101604052809291908181526020018280546105e690612111565b80156106335780601f1061060857610100808354040283529160200191610633565b820191906000526020600020905b81548152906001019060200180831161061657829003601f168201915b5050505050815260200160028201805461064c90612111565b80601f016020809104026020016040519081016040528092919081815260200182805461067890612111565b80156106c55780601f1061069a576101008083540402835291602001916106c5565b820191906000526020600020905b8154815290600101906020018083116106a857829003601f168201915b505050505081526020016003820180546106de90612111565b80601f016020809104026020016040519081016040528092919081815260200182805461070a90612111565b80156107575780601f1061072c57610100808354040283529160200191610757565b820191906000526020600020905b81548152906001019060200180831161073a57829003601f168201915b5050505050815260200160048201805461077090612111565b80601f016020809104026020016040519081016040528092919081815260200182805461079c90612111565b80156107e95780601f106107be576101008083540402835291602001916107e9565b820191906000526020600020905b8154815290600101906020018083116107cc57829003601f168201915b505050505081525050915050919050565b606060068260405161080c919061209c565b9081526020016040518091039020805480602002602001604051908101604052809291908181526020016000905b82821015610be257838290600052602060002090600702016040518060e001604052908160008201805461086d90612111565b80601f016020809104026020016040519081016040528092919081815260200182805461089990612111565b80156108e65780601f106108bb576101008083540402835291602001916108e6565b820191906000526020600020905b8154815290600101906020018083116108c957829003601f168201915b505050505081526020016001820180546108ff90612111565b80601f016020809104026020016040519081016040528092919081815260200182805461092b90612111565b80156109785780601f1061094d57610100808354040283529160200191610978565b820191906000526020600020905b81548152906001019060200180831161095b57829003601f168201915b5050505050815260200160028201805461099190612111565b80601f01602080910402602001604051908101604052809291908181526020018280546109bd90612111565b8015610a0a5780601f106109df57610100808354040283529160200191610a0a565b820191906000526020600020905b8154815290600101906020018083116109ed57829003601f168201915b50505050508152602001600382018054610a2390612111565b80601f0160208091040260200160405190810160405280929190818152602001828054610a4f90612111565b8015610a9c5780601f10610a7157610100808354040283529160200191610a9c565b820191906000526020600020905b815481529060010190602001808311610a7f57829003601f168201915b50505050508152602001600482018054610ab590612111565b80601f0160208091040260200160405190810160405280929190818152602001828054610ae190612111565b8015610b2e5780601f10610b0357610100808354040283529160200191610b2e565b820191906000526020600020905b815481529060010190602001808311610b1157829003601f168201915b50505050508152602001600582018054610b4790612111565b80601f0160208091040260200160405190810160405280929190818152602001828054610b7390612111565b8015610bc05780601f10610b9557610100808354040283529160200191610bc0565b820191906000526020600020905b815481529060010190602001808311610ba357829003601f168201915b505050505081526020016006820154815250508152602001906001019061083a565b505050509050919050565b60606002805480602002602001604051908101604052809291908181526020016000905b82821015610fb957838290600052602060002090600702016040518060e0016040529081600082018054610c4490612111565b80601f0160208091040260200160405190810160405280929190818152602001828054610c7090612111565b8015610cbd5780601f10610c9257610100808354040283529160200191610cbd565b820191906000526020600020905b815481529060010190602001808311610ca057829003601f168201915b50505050508152602001600182018054610cd690612111565b80601f0160208091040260200160405190810160405280929190818152602001828054610d0290612111565b8015610d4f5780601f10610d2457610100808354040283529160200191610d4f565b820191906000526020600020905b815481529060010190602001808311610d3257829003601f168201915b50505050508152602001600282018054610d6890612111565b80601f0160208091040260200160405190810160405280929190818152602001828054610d9490612111565b8015610de15780601f10610db657610100808354040283529160200191610de1565b820191906000526020600020905b815481529060010190602001808311610dc457829003601f168201915b50505050508152602001600382018054610dfa90612111565b80601f0160208091040260200160405190810160405280929190818152602001828054610e2690612111565b8015610e735780601f10610e4857610100808354040283529160200191610e73565b820191906000526020600020905b815481529060010190602001808311610e5657829003601f168201915b50505050508152602001600482018054610e8c90612111565b80601f0160208091040260200160405190810160405280929190818152602001828054610eb890612111565b8015610f055780601f10610eda57610100808354040283529160200191610f05565b820191906000526020600020905b815481529060010190602001808311610ee857829003601f168201915b50505050508152602001600582018054610f1e90612111565b80601f0160208091040260200160405190810160405280929190818152602001828054610f4a90612111565b8015610f975780601f10610f6c57610100808354040283529160200191610f97565b820191906000526020600020905b815481529060010190602001808311610f7a57829003601f168201915b5050505050815260200160068201548152505081526020019060010190610c11565b50505050905090565b60006040518060e00160405280888152602001878152602001868152602001858152602001848152602001838152602001428152509050600687604051611009919061209c565b9081526020016040518091039020819080600181540180825580915050600190039060005260206000209060070201600090919091909150600082015181600001908161105691906122ee565b50602082015181600101908161106c91906122ee565b50604082015181600201908161108291906122ee565b50606082015181600301908161109891906122ee565b5060808201518160040190816110ae91906122ee565b5060a08201518160050190816110c491906122ee565b5060c0820151816006015550506002819080600181540180825580915050600190039060005260206000209060070201600090919091909150600082015181600001908161111291906122ee565b50602082015181600101908161112891906122ee565b50604082015181600201908161113e91906122ee565b50606082015181600301908161115491906122ee565b50608082015181600401908161116a91906122ee565b5060a082015181600501908161118091906122ee565b5060c08201518160060155505050505050505050565b600060018111156111aa576111a96123c0565b5b8660018111156111bd576111bc6123c0565b5b036113485760006001805490509050600180816001815401808255809150500390600052602060002090505085600182815481106111fe576111fd6120b3565b5b9060005260206000209060050201600001908161121b91906122ee565b508460018281548110611231576112306120b3565b5b9060005260206000209060050201600101908161124e91906122ee565b508360018281548110611264576112636120b3565b5b9060005260206000209060050201600201908161128191906122ee565b508260018281548110611297576112966120b3565b5b906000526020600020906005020160030190816112b491906122ee565b5081600182815481106112ca576112c96120b3565b5b906000526020600020906005020160040190816112e791906122ee565b50806005876040516112f9919061209c565b9081526020016040518091039020819055507f9225e751b3dd0443fcd06610d0305b29f3a131c7c4c5b95969d96213d0c6d1498660405161133a9190612485565b60405180910390a150611475565b60008080549050905060006040518060a001604052808881526020018781526020018681526020018581526020018481525090508160048860405161138d919061209c565b908152602001604051809103902081905550600081908060018154018082558091505060019003906000526020600020906005020160009091909190915060008201518160000190816113e091906122ee565b5060208201518160010190816113f691906122ee565b50604082015181600201908161140c91906122ee565b50606082015181600301908161142291906122ee565b50608082015181600401908161143891906122ee565b5050507f9225e751b3dd0443fcd06610d0305b29f3a131c7c4c5b95969d96213d0c6d1498760405161146a9190612506565b60405180910390a150505b505050505050565b60606001805480602002602001604051908101604052809291908181526020016000905b828210156117ad57838290600052602060002090600502016040518060a00160405290816000820180546114d490612111565b80601f016020809104026020016040519081016040528092919081815260200182805461150090612111565b801561154d5780601f106115225761010080835404028352916020019161154d565b820191906000526020600020905b81548152906001019060200180831161153057829003601f168201915b5050505050815260200160018201805461156690612111565b80601f016020809104026020016040519081016040528092919081815260200182805461159290612111565b80156115df5780601f106115b4576101008083540402835291602001916115df565b820191906000526020600020905b8154815290600101906020018083116115c257829003601f168201915b505050505081526020016002820180546115f890612111565b80601f016020809104026020016040519081016040528092919081815260200182805461162490612111565b80156116715780601f1061164657610100808354040283529160200191611671565b820191906000526020600020905b81548152906001019060200180831161165457829003601f168201915b5050505050815260200160038201805461168a90612111565b80601f01602080910402602001604051908101604052809291908181526020018280546116b690612111565b80156117035780601f106116d857610100808354040283529160200191611703565b820191906000526020600020905b8154815290600101906020018083116116e657829003601f168201915b5050505050815260200160048201805461171c90612111565b80601f016020809104026020016040519081016040528092919081815260200182805461174890612111565b80156117955780601f1061176a57610100808354040283529160200191611795565b820191906000526020600020905b81548152906001019060200180831161177857829003601f168201915b505050505081525050815260200190600101906114a1565b50505050905090565b6040518060a0016040528060608152602001606081526020016060815260200160608152602001606081525090565b6000604051905090565b600080fd5b600080fd5b600080fd5b600080fd5b6000601f19601f8301169050919050565b7f4e487b7100000000000000000000000000000000000000000000000000000000600052604160045260246000fd5b61184c82611803565b810181811067ffffffffffffffff8211171561186b5761186a611814565b5b80604052505050565b600061187e6117e5565b905061188a8282611843565b919050565b600067ffffffffffffffff8211156118aa576118a9611814565b5b6118b382611803565b9050602081019050919050565b82818337600083830152505050565b60006118e26118dd8461188f565b611874565b9050828152602081018484840111156118fe576118fd6117fe565b5b6119098482856118c0565b509392505050565b600082601f830112611926576119256117f9565b5b81356119368482602086016118cf565b91505092915050565b600060208284031215611955576119546117ef565b5b600082013567ffffffffffffffff811115611973576119726117f4565b5b61197f84828501611911565b91505092915050565b600081519050919050565b600082825260208201905092915050565b60005b838110156119c25780820151818401526020810190506119a7565b60008484015250505050565b60006119d982611988565b6119e38185611993565b93506119f38185602086016119a4565b6119fc81611803565b840191505092915050565b600060a0830160008301518482036000860152611a2482826119ce565b91505060208301518482036020860152611a3e82826119ce565b91505060408301518482036040860152611a5882826119ce565b91505060608301518482036060860152611a7282826119ce565b91505060808301518482036080860152611a8c82826119ce565b9150508091505092915050565b60006020820190508181036000830152611ab38184611a07565b905092915050565b600081519050919050565b600082825260208201905092915050565b6000819050602082019050919050565b6000819050919050565b611afa81611ae7565b82525050565b600060e0830160008301518482036000860152611b1d82826119ce565b91505060208301518482036020860152611b3782826119ce565b91505060408301518482036040860152611b5182826119ce565b91505060608301518482036060860152611b6b82826119ce565b91505060808301518482036080860152611b8582826119ce565b91505060a083015184820360a0860152611b9f82826119ce565b91505060c0830151611bb460c0860182611af1565b508091505092915050565b6000611bcb8383611b00565b905092915050565b6000602082019050919050565b6000611beb82611abb565b611bf58185611ac6565b935083602082028501611c0785611ad7565b8060005b85811015611c435784840389528151611c248582611bbf565b9450611c2f83611bd3565b925060208a01995050600181019050611c0b565b50829750879550505050505092915050565b60006020820190508181036000830152611c6f8184611be0565b905092915050565b60008060008060008060c08789031215611c9457611c936117ef565b5b600087013567ffffffffffffffff811115611cb257611cb16117f4565b5b611cbe89828a01611911565b965050602087013567ffffffffffffffff811115611cdf57611cde6117f4565b5b611ceb89828a01611911565b955050604087013567ffffffffffffffff811115611d0c57611d0b6117f4565b5b611d1889828a01611911565b945050606087013567ffffffffffffffff811115611d3957611d386117f4565b5b611d4589828a01611911565b935050608087013567ffffffffffffffff811115611d6657611d656117f4565b5b611d7289828a01611911565b92505060a087013567ffffffffffffffff811115611d9357611d926117f4565b5b611d9f89828a01611911565b9150509295509295509295565b60028110611db957600080fd5b50565b600081359050611dcb81611dac565b92915050565b60008060008060008060c08789031215611dee57611ded6117ef565b5b6000611dfc89828a01611dbc565b965050602087013567ffffffffffffffff811115611e1d57611e1c6117f4565b5b611e2989828a01611911565b955050604087013567ffffffffffffffff811115611e4a57611e496117f4565b5b611e5689828a01611911565b945050606087013567ffffffffffffffff811115611e7757611e766117f4565b5b611e8389828a01611911565b935050608087013567ffffffffffffffff811115611ea457611ea36117f4565b5b611eb089828a01611911565b92505060a087013567ffffffffffffffff811115611ed157611ed06117f4565b5b611edd89828a01611911565b9150509295509295509295565b600081519050919050565b600082825260208201905092915050565b6000819050602082019050919050565b600060a0830160008301518482036000860152611f3382826119ce565b91505060208301518482036020860152611f4d82826119ce565b91505060408301518482036040860152611f6782826119ce565b91505060608301518482036060860152611f8182826119ce565b91505060808301518482036080860152611f9b82826119ce565b9150508091505092915050565b6000611fb48383611f16565b905092915050565b6000602082019050919050565b6000611fd482611eea565b611fde8185611ef5565b935083602082028501611ff085611f06565b8060005b8581101561202c578484038952815161200d8582611fa8565b945061201883611fbc565b925060208a01995050600181019050611ff4565b50829750879550505050505092915050565b600060208201905081810360008301526120588184611fc9565b905092915050565b600081905092915050565b600061207682611988565b6120808185612060565b93506120908185602086016119a4565b80840191505092915050565b60006120a8828461206b565b915081905092915050565b7f4e487b7100000000000000000000000000000000000000000000000000000000600052603260045260246000fd5b7f4e487b7100000000000000000000000000000000000000000000000000000000600052602260045260246000fd5b6000600282049050600182168061212957607f821691505b60208210810361213c5761213b6120e2565b5b50919050565b60008190508160005260206000209050919050565b60006020601f8301049050919050565b600082821b905092915050565b6000600883026121a47fffffffffffffffffffffffffffffffffffffffffffffffffffffffffffffffff82612167565b6121ae8683612167565b95508019841693508086168417925050509392505050565b6000819050919050565b60006121eb6121e66121e184611ae7565b6121c6565b611ae7565b9050919050565b6000819050919050565b612205836121d0565b612219612211826121f2565b848454612174565b825550505050565b600090565b61222e612221565b6122398184846121fc565b505050565b5b8181101561225d57612252600082612226565b60018101905061223f565b5050565b601f8211156122a25761227381612142565b61227c84612157565b8101602085101561228b578190505b61229f61229785612157565b83018261223e565b50505b505050565b600082821c905092915050565b60006122c5600019846008026122a7565b1980831691505092915050565b60006122de83836122b4565b9150826002028217905092915050565b6122f782611988565b67ffffffffffffffff8111156123105761230f611814565b5b61231a8254612111565b612325828285612261565b600060209050601f8311600181146123585760008415612346578287015190505b61235085826122d2565b8655506123b8565b601f19841661236686612142565b60005b8281101561238e57848901518255600182019150602085019450602081019050612369565b868310156123ab57848901516123a7601f8916826122b4565b8355505b6001600288020188555050505b505050505050565b7f4e487b7100000000000000000000000000000000000000000000000000000000600052602160045260246000fd5b600082825260208201905092915050565b7f446f6e6f722043726561746564205375636365737366756c6c79000000000000600082015250565b6000612436601a836123ef565b915061244182612400565b602082019050919050565b600061245782611988565b61246181856123ef565b93506124718185602086016119a4565b61247a81611803565b840191505092915050565b6000604082019050818103600083015261249e81612429565b905081810360208301526124b2818461244c565b905092915050565b7f52656365697665722043726561746564205375636365737366756c6c79000000600082015250565b60006124f0601d836123ef565b91506124fb826124ba565b602082019050919050565b6000604082019050818103600083015261251f816124e3565b90508181036020830152612533818461244c565b90509291505056fea264697066735822122023c337ed63b9d4eac928929f6357554d66a9a00abaf180531f5ef2c59260e54664736f6c63430008110033",
  "immutableReferences": {},
  "source": "// SPDX-License-Identifier: GPL-3.0\r\n\r\npragma solidity >=0.5.0 <=0.8.17;\r\n\r\n    struct UserStruct{\r\n        string id;\r\n        string name;\r\n        string email;\r\n        string contactNum;\r\n        string bloodGroup;\r\n    }\r\n\r\n    struct Request{\r\n        string receiverId;\r\n        string patientName;\r\n        string contactNum;\r\n        string reason;\r\n        string bloodGroup;\r\n        string hospitalAddress;\r\n        uint date;\r\n    }\r\n\r\ncontract Blood{\r\n\r\n    UserStruct [] receiver;\r\n    UserStruct [] donor;\r\n    Request [] request;\r\n    Request [] userRequests;\r\n\r\n    enum USERTYPE{Donor,Receiver}\r\n\r\n    mapping(string => uint) _receiverId;\r\n    mapping(string => uint) _donorId;\r\n    mapping(string => Request[]) _requestId;\r\n\r\n    event User(string message,string _id);\r\n\r\n    function setUser(USERTYPE _userType,string memory _id,string memory _name,string memory _email,string memory contact,string memory _bloodGroup)public{\r\n        if(_userType == USERTYPE.Donor){\r\n            uint index = donor.length;\r\n            donor.push();\r\n            donor[index].id = _id;\r\n            donor[index].name = _name;\r\n            donor[index].email = _email;\r\n            donor[index].contactNum = contact;\r\n            donor[index].bloodGroup = _bloodGroup;\r\n\r\n            _donorId[_id] = index;\r\n\r\n            emit User(\"Donor Created Successfully\",_id);\r\n        }else{\r\n            uint index = receiver.length;\r\n            UserStruct memory _receiver = UserStruct({\r\n            id: _id,\r\n            name: _name,\r\n            email: _email,\r\n            contactNum: contact,\r\n            bloodGroup: _bloodGroup\r\n            });\r\n            _receiverId[_id] = index;\r\n            receiver.push(_receiver);\r\n\r\n            emit User(\"Receiver Created Successfully\",_id);\r\n        }\r\n    }\r\n\r\n    function setRequest(string memory id,string memory name,string memory number,string memory reason,string memory bloodGroup,string memory hospitalName)public{\r\n        Request memory _request = Request({\r\n        receiverId: id,\r\n        patientName: name,\r\n        contactNum: number,\r\n        reason: reason,\r\n        bloodGroup: bloodGroup,\r\n        hospitalAddress: hospitalName,\r\n        date: block.timestamp\r\n        });\r\n        _requestId[id].push(_request);\r\n        request.push(_request);\r\n    }\r\n\r\n    function getReceiver(string memory receiverId)public view returns(UserStruct memory){\r\n        uint _receiver = _receiverId[receiverId];\r\n        return receiver[_receiver];\r\n    }\r\n\r\n    function getDonor(string memory donorId)public view returns(UserStruct memory){\r\n        uint _donor = _donorId[donorId];\r\n        return donor[_donor];\r\n    }\r\n\r\n    function getUserRequests(string memory id)public view returns(Request [] memory){\r\n        return _requestId[id];\r\n    }\r\n\r\n    function getAllRequest()public view returns(Request [] memory){\r\n        return request;\r\n    }\r\n\r\n    function getAllDonors()public view returns(UserStruct [] memory){\r\n        return donor;\r\n    }\r\n\r\n}",
  "sourcePath": "C:\\Users\\Atta ur Rehman\\AndroidStudioProjects\\blood_bank\\contracts\\Blood.sol",
  "compiler": {
    "name": "solc",
    "version": "0.8.17+commit.8df45f5f.Emscripten.clang"
  },
  "schemaVersion": "3.4.10",
  "updatedAt": "2022-12-29T08:41:37.992Z",
  "networkType": "ethereum",
  "devdoc": {
    "kind": "dev",
    "methods": {},
    "version": 1
  },
  "userdoc": {
    "kind": "user",
    "methods": {},
    "version": 1
  }
}